00035090261873ISENTO        MARAISA DOS SANTOS SOUZA           RJ3100NG0466084220201601252211 0000000015FF3004CA394F4DEBA00F5CBCB22E828000000001000000000001000000000000290000000000000000000000000N160100000000121971904150      5e3f62eed84791efc5c2fdcd680bae7c
00035090261873ISENTO        MARAISA DOS SANTOS SOUZA           RJ3100NG0466084220201601252211 000000002148E476B9BE741C2808488074899098A000000001000000000001000000000000290000000000000000000000000N160100000000221971904150      d1d771ccec003df7b422004b211e042d
00035090261873ISENTO        MARAISA DOS SANTOS SOUZA           RJ3100NG0466084220201601252211 0000000030F1D7BB80DF5773CFC5C843567C8DDB3000000001000000000001000000000000290000000000000000000000000N160100000000321971904150      3327da3ed6d92662bed39a34b13761ab
00097456403791ISENTO        CONSUMIDOR                         RJ3100NG0419624424201601252211 00000000473EB37E6CCBA05C8B66D1303A601F5A9000000000299000000000299000000000087000000000000000000000000N160100000000421967571998      6ea7f94aa081e21d5dc137361847fa38
00031211804879ISENTO        EDUARDO FELIPE SANTOS              RJ3100NG0466077061201601252211 00000000575BBD68FC823F04DACBCA07383C68295000000001000000000001000000000000290000000000000000000000000N160100000000521996181993      9cde649b9d7899d922b9d9d777c9f4b3
00054062799715ISENTO        CONSUMIDOR                         RJ3100NG0098250905201601252211 0000000060C77B13A11EDDB153B02D36B0F40FB31000000000599000000000599000000000174000000000000000000000000N160100000000621996443857      334faa6bc143bd7982fd79d5473382c8
00004767428700ISENTO        CONSUMIDOR                         RJ3100NG0447351303201601252211 000000007DEBDEF70718BBE7EA8242FA00DEC618B000000000599000000000200000000000058000000000399000000000000N160100000000721998246943      74f3dbd27b300eb2146b35b892f03e35
00002360252798ISENTO        ANDERSON DA SILVA VASQUES          RJ3100NG0244347049201601252211 000000008FC6FD65D41B2E09CAE93DDB8A005519B000000000599000000000000000000000000000000000599000000000000N160100000000821972351540      b792b1faae5ad3d5a95437dd8d3a06e9
00087478692753ISENTO        CONSUMIDOR                         RJ3100NG0032002216201601252211 00000000927A88F840311C3296A4FDD6A7C08BA2D000000000599000000000000000000000000000000000599000000000000N160100000000922999984514      7e57061084bdfe65bc06d2d630005ca3
00013872048740ISENTO        CONSUMIDOR                         RJ3100NG0450055764201601252211 00000001039DE4316A87A69DB98642A0F6CCED288000000000599000000000599000000000174000000000000000000000000N160100000001021995592076      63461778de5421647db73f551b93e45d
00009894898688ISENTO        CONSUMIDOR                         RJ3100NG0428608697201601252211 000000011B707509AB3799D6C006491A6709DE4C9000000000599000000000599000000000174000000000000000000000000N160100000001121967737871      05b62c888f527d7834cfb4cfa6aa33e6
00012171282711ISENTO        CONSUMIDOR                         RJ3100NG0282933098201601252211 00000001270AFEF26FE90B5659E7743710DA6839C000000000599000000000599000000000174000000000000000000000000N160100000001221972296347      794f395cd0b863f8e2c696993dfc3337
00010805339744ISENTO        CONSUMIDOR                         RJ3100NG0398758370201601252211 0000000139656F44BBD56E71C2F1B25D34A325B76000000000599000000000599000000000174000000000000000000000000N160100000001321967982013      c2860e1eaf44a6e4ae07e2188317a58f
00009986137705ISENTO        MARIA DO SOCORRO MACIEL COSTA      RJ3100NG0445457113201601252211 000000014BBCE6DAD9F55AF376A31FCFDEE09E866000000000599000000000599000000000174000000000000000000000000N160100000001421996951419      3543f7bacc09d456acafcbf74ec726e6
00013872048740ISENTO        CONSUMIDOR                         RJ3100NG0450055764201601252211 000000015129B38A4C58D79A0AFA45D35ADE7C1D0000000000599000000000599000000000174000000000000000000000000N160100000001521995592076      b1cf4a2dd7c54fac7fb34b66b1f7575e
00014544267722ISENTO        YASMIN RODRIGUES BASILIA DA CONCEICRJ3100NG0371601721201601252211 0000000164EC9A1FD128F69FF09E461CB9ED241BF000000000299000000000299000000000087000000000000000000000000N160100000001621996312945      9b0f976c86b53be469811924b77fc70f
00050440888700ISENTO        JOSE CARLOS INALDO DA SILVA        RJ3100NG0444807052201601262211 00000001794B230C930D2D12F7DBC3C6861DCC42E000000000599000000000599000000000174000000000000000000000000N160100000001721971432937      4df990d1ba06e380e726a69d1b2471a1
00000266394086ISENTO        CONSUMIDOR                         RJ3100NG0378761548201601262211 000000018762AE881E39E6C8A91B22C6D90383B39000000000299000000000000000000000000000000000299000000000000N16010000000181135497777       ed74a0ad1946ef2156932080a7c539cd
00011241805750ISENTO        CONSUMIDOR                         RJ3100NG0435105605201601262211 0000000193B8B22F96808A8FE9A44697282DC69AE000000000599000000000000000000000000000000000599000000000000N160100000001921971527183      8bd7056008ee2d55d27ce7274caa739c
00097456403791ISENTO        CONSUMIDOR                         RJ3100NG0419624424201601262211 000000020F731FD346B473AC4A73D855EDC2A95C5000000000299000000000299000000000087000000000000000000000000N160100000002021967571998      e84dcb9939d8305952847de6a8d52ad6
00012171282711ISENTO        CONSUMIDOR                         RJ3100NG0282933098201601262211 0000000215DCD7EC4A5541274EB4904FE4E08E9AD000000000599000000000599000000000174000000000000000000000000N160100000002121972296347      869a3dbe48656c7f491f5de0d6c66bb5
00066083770700ISENTO        CONSUMIDOR                         RJ3100NG0421044724201601262211 000000022B1CBAA78167562011C4C3F39DF5C67EC000000000599000000000300000000000087000000000299000000000000N160100000002221996697922      dd9e20a3e48ae1836954d99c73132496
00012678191702ISENTO        CONSUMIDOR                         RJ3100NG0194502104201601262211 00000002320F55DFB7D99F3228A079BA594518144000000000599000000000599000000000174000000000000000000000000N160100000002324998218970      3938ede7fde269b91ea6070ad1c2f2d5
00017244073763ISENTO        CONSUMIDOR                         RJ3100NG0400540282201601262211 0000000248027986BD9AB3F49ED1FE8AF03EA9423000000000299000000000299000000000087000000000000000000000000N160100000002421997872377      0b3566fe93e8427854e37ba3dabae1ae
00016063667776ISENTO        CONSUMIDOR                         RJ3100NG0330841359201601262211 000000025D611D1C1007232E9DC161BAB745DC3EA000000000299000000000299000000000087000000000000000000000000N160100000002522998942259      0b381392b544148dc5687d03cd7ae347
00004272939793ISENTO        CONSUMIDOR                         RJ3100NG0195918227201601262211 000000026871F4DDCFE1957FCF6D1262B2159F725000000001000000000001000000000000290000000000000000000000000N16010000000261135497777       46e2334d78e5c373e91e6d2e06d8db13
00011000776778ISENTO        CONSUMIDOR                         RJ3100NG0350825868201601262211 000000027263F447592C6F3A7BFF5353E055306AD000000001000000000001000000000000290000000000000000000000000N16010000000271135497777       73091b68ec809918f926a63965e13151
00041120302749ISENTO        CONSUMIDOR                         RJ3100NG0351945414201601262211 0000000285068AC43E77E9B125836B75B44710CCA000000001000000000001000000000000290000000000000000000000000N16010000000281135497777       6fd2bb87f2c29bf968e363d687b66a23
00000756902762ISENTO        CONSUMIDOR                         RJ3100NG0295198230201601262211 00000002927B51F9306A56AB7FCF1AC3A0C49545F000000001000000000000657000000000191000000000343000000000000N160100000002924999159471      6a567ce2a2ae1cc1b571c86dfbc7b79a
00007554097792ISENTO        CONSUMIDOR                         RJ3100NG0264689720201601262211 00000003070DAA24DB5C2722A4EE33D17FC81167F000000001000000000001000000000000290000000000000000000000000N160100000003021999532635      ce0e28a7d868ae19ab4b22547b52e7ee
00008672425740ISENTO        MARCELA ANOMAL CORREA              RJ3100NG0323669489201601262211 000000031E037A0912D101580010D87A7669FAAA9000000000299000000000101000000000029000000000198000000000000N160100000003121995468144      601c2685964c3757a354a81b41b03074
00010966144805ISENTO        BENILZA ELIAS DOS SANTOS           RJ3100NG0443538711201601262211 0000000326150EEE1B46E633B1ED26C4259D13AED000000000599000000000599000000000174000000000000000000000000N160100000003224998839772      468f0bf3dc47cda19518e03bbb4dbd19
00032757344749ISENTO        CONSUMIDOR                         RJ3100NG0434332656201601262211 0000000339B1E07DE62690AF0FF9085B53F919C3B000000001000000000000399000000000116000000000601000000000000N16010000000331135497777       243b8618e68824519b3d44ccf44c787c
00001935249703ISENTO        CONSUMIDOR                         RJ3100NG0312503234201601262211 0000000340C93C4072A52EBF90AE7281DD24E96F9000000001000000000000102000000000030000000000898000000000000N160100000003421998345936      13558d501fec7abffb92a2ad93c7bff0
00091862337772ISENTO        CONSUMIDOR                         RJ3100NG0410189692201601262211 000000035A95786821C17FB177AFFECA04E912BCC000000001000000000000211000000000061000000000789000000000000N160100000003521971949149      6b893c95f186a3c343c27dfb73d1d061
00075889331787ISENTO        CONSUMIDOR                         RJ3100NG0032408461201601262211 000000036E1FCF61E09367098690D90E4B39B1C59000000001000000000000377000000000109000000000623000000000000N160100000003621996328234      2a93b8acf8bffbdc554d9086d277cc7e
00089916131791ISENTO        CONSUMIDOR                         RJ3100NG0229600330201601262211 0000000375F46958402A26F8D814477D1A3F70DDA000000001000000000001000000000000290000000000000000000000000N160100000003724999112392      5ada1abbbf7a8a5ac9e9b56ab65f833b
00033937656715ISENTO        CONSUMIDOR                         RJ3100NG0346766800201601262211 000000038ED4765E0E4FB0601C5BA34FCA73CDA7A000000001000000000000602000000000175000000000398000000000000N160100000003821998394329      7585e08660783faaa46a75ff8eb85a8d
00015305700779ISENTO        CONSUMIDOR                         RJ3100NG0337767938201601262211 0000000391B154B1BB71C1764DF725DCA6FA3EF35000000001000000000001000000000000290000000000000000000000000N16010000000391135497777       1b0045d8e5e5d2c1c271461758a66d5b
00011776095766ISENTO        CONSUMIDOR                         RJ3100NG0332014964201601262211 0000000400B35953C3F423AF5D31A967031A9625B000000001000000000001000000000000290000000000000000000000000N160100000004022997364529      a6e11b59c0970d7d32bd9063b3246dcb
00093564953787ISENTO        JACIRA CORREA GAMA CAETANO         RJ3100NG0247318928201601262211 000000041D7951FD84E706D1B34928D96BB8C184E000000001000000000000020000000000006000000000980000000000000N160100000004121996955765      c3e444e99f2e4b7e1e26384119160e8b
00042674930730ISENTO        CONSUMIDOR                         RJ3100NG0372361226201601262211 000000042E9A4D66F8F3B09405889C3CD8F503D09000000001000000000000206000000000060000000000794000000000000N16010000000421135497777       4054345d4667805dd0bfc3d4137d2795
00084092521553ISENTO        SARAH PINTO TORRES                 RJ3100NG0357669044201601262211 000000043C012110105C162896D74645F8BA99DA1000000001000000000000437000000000127000000000563000000000000N160100000004321995148638      91f1f25e8d52b431d01f6f792ea7b9df
00006908728790ISENTO        MARCELO DE SOUZA LOURENCO          RJ3100NG0358564180201601262211 000000044D81B29D11C4FDEFCE37C7F3E2A8BE125000000001000000000000901000000000261000000000099000000000000N160100000004422997322575      97532b0f8cbda789f06988ba8490a6b1
00009355465700ISENTO        CONSUMIDOR                         RJ3100NG0096236804201601262211 000000045031DE5A21D11FDF63178BB1C60059BFE000000001000000000000321000000000093000000000679000000000000N160100000004521971909869      4d718870f596fad2cc54a71e12263899
00077359453704ISENTO        ZELIA PACHECO MARINHO              RJ3100NG0223876208201601262211 000000046D2B2D20F306C088530DECD6273C5926E000000001000000000001000000000000290000000000000000000000000N16010000000461135497777       04864617dc934d31fb6c4863553efbf8
00087998653787ISENTO        CONSUMIDOR                         RJ3100NG0032711156201601262211 00000004763599DBDD98B97ED651BE5F0CE796C56000000001000000000000201000000000058000000000799000000000000N160100000004721997124269      44d13bf28814471368ee2b2f4322d8df
00006961833748ISENTO        CONSUMIDOR                         RJ3100NG0345880407201601262211 0000000480DFCB951971A642CC7454406135664FA000000001000000000000407000000000118000000000593000000000000N16010000000481135497777       e797733291b06c9e8f2da3d28d192d26
00051361337753ISENTO        CONSUMIDOR                         RJ3100NG0398650249201601262211 000000049759974503B3BB0BCB794B052DD519E09000000001000000000000900000000000261000000000100000000000000N160100000004921999673399      c9b494c4614d2f5fa1f7dd2350351f51
00006268930622ISENTO        CONSUMIDOR                         RJ3100NG0313701068201601262211 0000000501C6D48BFA845BE53235E2B1B27D10C28000000000599000000000599000000000174000000000000000000000000N160100000005021981796474      2d1ff02b7ffa8038fe853e0650778cd8
00003511079756ISENTO        CONSUMIDOR                         RJ3100NG0434771905201601262211 000000051B07EF404C8D4EE322B612E0ABC228A88000000001000000000001000000000000290000000000000000000000000N16010000000511135497777       36eb800db893c19a08010f4d1ab7fac1
00003764224754ISENTO        CONSUMIDOR                         RJ3100NG0197715124201601262211 0000000521D893A5EBCE0339FD41DB8AD29B4EA3E000000001000000000001000000000000290000000000000000000000000N160100000005221998729051      355bd873c5f4d0a801166987d6c67e9a
00097456403791ISENTO        CONSUMIDOR                         RJ3100NG0419624424201601262211 000000053EC3461E6CE3D38B69AE1C49DEF81DF4F000000000599000000000599000000000174000000000000000000000000N160100000005321967571998      6e7ef516c6bb4d86bc93bd82dbbbdc64
00067148670772ISENTO        CONSUMIDOR                         RJ3100NG0429646980201601262211 00000005459D7490B117F903F359708BCF4D3B5CA000000001000000000001000000000000290000000000000000000000000N16010000000541135497777       93642c4c42d216cb54953fb06a8b913f
00008555787777ISENTO        CONSUMIDOR                         RJ3100NG0413014106201601262211 00000005580642F78DC136E422536A7BA6D267175000000001000000000001000000000000290000000000000000000000000N16010000000551135497777       a4a4f1ec49b61d455889189c198973d2
00012936005710ISENTO        CONSUMIDOR                         RJ3100NG0430117261201601262211 000000056A45110D84D9B8D1356A9990A3987DFD9000000000299000000000299000000000087000000000000000000000000N160100000005621999582554      65e14f4f9654a7ba16fe8275ac251997
00000351235752ISENTO        CONSUMIDOR                         RJ3100NG0345386058201601262211 0000000570D1EC7619192833CF634BB2EA800CF8B000000001000000000000718000000000208000000000282000000000000N16010000000571135497777       aa5b1118bab11e90385e9ad009413f75
00011853914797ISENTO        CONSUMIDOR                         RJ3100NG0426982488201601262211 0000000589C711577A57E735F5E00560F1AC16383000000001000000000000000000000000000000000001000000000000000N16010000000581135497777       1e2457276dd0caafdca7d18e4c5d6409
00076544737704ISENTO        jocelma horlandino de vasconc      RJ3100NG0449194644201601262211 0000000594356AF9AF99132CF521EC1ADFD678446000000001000000000001000000000000290000000000000000000000000N160100000005921967897676      cadfbcddda1b682ba7c83f19cbde22ed
00071973060272ISENTO        CONSUMIDOR                         RJ3100NG0448414528201601262211 000000060A8B76D5B66548936EAAE0E37EB18E8B2000000000599000000000599000000000174000000000000000000000000N160100000006021972298515      971680c28e684133ce0d20f67d8d0004
00009370738738ISENTO        CONSUMIDOR                         RJ1100NG0292761711201601272211 000000061A65D3C2798D6AC5069ECFE9008BA836A000000000599000000000000000000000000000000000599000000000000N16010000000611135497777       4681aa5c9ff07aa31470494413bbe7c5
00086372068753ISENTO        CONSUMIDOR                         RJ3100NG0409616045201601272211 0000000628EE71A69274E10812A716C15AF5B7A64000000000599000000000000000000000000000000000599000000000000N16010000000621135497777       82f25f3d2feaaa612520b274ff91d39a
00010979544718ISENTO        CONSUMIDOR                         RJ3100NG0351912641201601272211 000000063173179CB69181BB015E421EA988453FF000000001000000000000940000000000273000000000060000000000000N16010000000631135497777       1206bcec18c11b902bddefd99203debe
00001398617776ISENTO        CONSUMIDOR                         RJ3100NG0124454468201601272211 000000064F6B64D0464621CA1DB12657AFDCCB96F000000001000000000000540000000000157000000000460000000000000N160100000006421996792433      0d07966f1c10068ebb659898be998cc7
00013904670743ISENTO        CONSUMIDOR                         RJ3100NG0449623524201601272211 000000065D07275AEEA06C36DF32E0AB84166A38F000000001000000000001000000000000290000000000000000000000000N16010000000651135497777       9ca57532ba0f22826c291b4f93b4c25c
00000338468803ISENTO        CONSUMIDOR                         RJ3100NG0428392394201601272211 000000066CC580E0BD6B6F25891CEE4462595EC48000000001000000000000000000000000000000000001000000000000000N16010000000661135497777       cd35c558b430f23e2220e8f03277567a
00098858823753ISENTO        CONSUMIDOR                         RJ3100NG0286942873201601272211 0000000676C825DF36C958B497A72A8B2A5F1199C000000000299000000000299000000000087000000000000000000000000N160100000006721971241935      c2ff61498f681b062b4e143649571be6
00045856591704ISENTO        CONSUMIDOR                         RJ3100NG0398018862201601272211 000000068D142838A42B20FA20FAB820B79708D46000000001000000000001000000000000290000000000000000000000000N16010000000681135497777       86e6132880a9148f4a6babed22e69819
00060759844704ISENTO        CONSUMIDOR                         RJ3100NG0439157659201601272211 000000069549FAE4DADE197B2285D79B7BAD4FEE6000000001000000000001000000000000290000000000000000000000000N160100000006921998474478      f4b68a916a6a13e9c912a2a8831cc1ff
00010086990713ISENTO        CONSUMIDOR                         RJ3100NG0143768490201601272211 0000000705850F51196803C1FC75C5F27E41B7CDB000000001000000000001000000000000290000000000000000000000000N160100000007022999392082      fcb1734a241822e9ef63049882bc400a
00005271816761ISENTO        RAQUEL MEDEIROS CRUZ               RJ3100NG0303332343201601272211 0000000719E13CE3E566758C58F9F54BB4673C387000000000599000000000599000000000174000000000000000000000000N160100000007121998329402      3b2043fd5bf250009351d34ed29a1eea
00013358700755ISENTO        CONSUMIDOR                         RJ3100NG0433972724201601272211 000000072BD666AD05F5CF0C062438E365C9BBBA9000000000599000000000599000000000174000000000000000000000000N160100000007221999565216      c318869f5de6c3995feb586cd6a1954b
00013373131731ISENTO        CONSUMIDOR                         RJ3100NG0396157638201601272211 0000000736106D0D9F93CBBC927C2CC8333E479B4000000001000000000001000000000000290000000000000000000000000N16010000000731135497777       5d59f108db6276fa8e4767d8f0450d40
00011210455706ISENTO        CONSUMIDOR                         RJ3100NG0304277174201601272211 000000074FFCFD502390116F4AB8FCC212CACB759000000000299000000000299000000000087000000000000000000000000N160100000007421995196957      f0f6be80154aabd4205d715ab1082822
00010897249771ISENTO        CONSUMIDOR                         RJ3100NG0124780106201601272211 000000075A294BCAD4AB4AE208E9DEDB8003436BB000000000599000000000300000000000087000000000299000000000000N160100000007522998934673      e85fe5eb8e5147fe8193810b41c66e35
00048337196734ISENTO        CONSUMIDOR                         RJ3100NG0466758380201601272211 000000076B72332CCE0F9473C85543A7B921AAA10000000001000000000001000000000000290000000000000000000000000N160100000007621998282643      c0d09ffda75089fa98e0bce1d903ee95
00089717511772ISENTO        CONSUMIDOR                         RJ3100NG0037118796201601272211 000000077867FD3793D8170604426010CFFA24495000000000599000000000000000000000000000000000599000000000000N16010000000771135497777       dc472fb84fa2aee64d0c647e7bd703b2
00096448393404ISENTO        CONSUMIDOR                         RJ3100NG0417930040201601272211 0000000786D5026536747B469D73F6464ED430DD2000000000299000000000299000000000087000000000000000000000000N160100000007822998997511      ac0542ca7f895a9032cbccc29564cec9
00000286851059ISENTO        CONSUMIDOR                         RJ3100NG0362538680201601272211 0000000793087701871D80F0321EC30E0A66FC860000000000299000000000000000000000000000000000299000000000000N160100000007921998625153      e3327c9d88008c103cfacfb1edc9d199
00000405088540ISENTO        CONSUMIDOR                         RJ3100NG0346802003201601272211 00000008017AF3ABEEAAF643CF718655472A475E6000000001000000000000401000000000116000000000599000000000000N16010000000801135497777       e9c6e582eaec93c6409b8b02cbacd879
00009656819713ISENTO        CONSUMIDOR                         RJ3100NG0367567748201601272211 00000008120B95EE67EB1B3A3FBDDCEDF3BE0E937000000000299000000000299000000000087000000000000000000000000N16010000000811135497777       df0a62df1ddfa72ec00281d197595869
00051361337753ISENTO        CONSUMIDOR                         RJ3100NG0398650249201601272211 0000000822BC60E5EC3DAE7A048723C7EABF6C9F0000000000299000000000299000000000087000000000000000000000000N160100000008221999673399      0b3a5779bd937b628515fee11e7fd2b7
00031211804879ISENTO        EDUARDO FELIPE SANTOS              RJ3100NG0466085225201601272211 000000083F9586357AC7F61E494FFCC58BC635343000000001000000000001000000000000290000000000000000000000000N160100000008321995787600      cb6b907740a76fc5b9b5ceccfbd889a1
00008899038678ISENTO        DIOGO GONCALVES LEAO               RJ3100NG0428076057201601272211 00000008444F5E8FE0B2CA7313134CFA2BCF60F5E000000000599000000000200000000000058000000000399000000000000N160100000008422997942546      7c70450edf3d04ca5a2439486240b7a2
00013538876770ISENTO        CONSUMIDOR                         RJ3100NG0361925731201601272211 000000085D647DEE36006FA2DA7F666883578E2FD000000000299000000000299000000000087000000000000000000000000N160100000008521993269578      672f0c34a45583a26cfa02ab645bf7aa
00083406522734ISENTO        CONSUMIDOR                         RJ3100NG0448520757201601272211 000000086D37F0E51D8730A571EA224B0421A264F000000000599000000000599000000000174000000000000000000000000N160100000008621997135319      63a6ac835c2be25461a30a12acb7cbf5
00009996697703ISENTO        IVAN CHAVES ZAJDSZNAJDER           RJ3100NG0408884439201601272211 0000000873BCED79968E2628E03410C3A46518DEB000000000599000000000599000000000174000000000000000000000000N160100000008721972519816      a9f234f090bd164d8493e8099c6ead73
00014830665769ISENTO        CONSUMIDOR                         RJ3100NG0439264999201601272211 0000000889A80AB06905A210A2C3FC2EF85088742000000000299000000000299000000000087000000000000000000000000N160100000008821971926800      0321c522558ee62754dee8aa710f28c0
00016048994761ISENTO        CONSUMIDOR                         RJ3100NG0450868639201601272211 000000089D53E4C02AFAC5BB26EEDD8B4E5A1FACA000000000299000000000000000000000000000000000299000000000000N16010000000891135497777       a9b6f198dc1c6aceb9ea13f7d858c670
00010129242705ISENTO        CONSUMIDOR                         RJ3100NG0343953540201601282211 000000090DB5E3FDF94B6CBCEF003907564CB5C07000000000599000000000599000000000174000000000000000000000000N16010000000901135497777       2ef15fbbeceb09f0cce311c3396f9164
00013528036745ISENTO        CONSUMIDOR                         RJ3100NG0429838933201601282211 000000091450A7A4BDD8AF2113C989D32B73CFC0E000000000599000000000599000000000174000000000000000000000000N160100000009121972249313      66a776ac066e65d60e437bd8897d0f21
00013084530785ISENTO        CONSUMIDOR                         RJ3100NG0449635426201601282211 00000009287026EC9CAE5DC7828C5188E5B71C6EB000000001000000000001000000000000290000000000000000000000000N160100000009221972112639      19918de66d6b2be2088178a03eb3db47
00012222087767ISENTO        CONSUMIDOR                         RJ3100NG0432804792201601282211 000000093A2C7DFBFDDB7B70AAD5B2C2E0A05552A000000001000000000001000000000000290000000000000000000000000N160100000009321967761168      d811ca125d395b107560771ed07969b6
00096448393404ISENTO        CONSUMIDOR                         RJ3100NG0417930040201601282211 0000000940B1C0AC017C77AAAE29D904D8D245063000000000299000000000299000000000087000000000000000000000000N160100000009422998997511      b69b3d4436f216bcbffa5d9a91398458
00013803102707ISENTO        CONSUMIDOR                         RJ3100NG0296314563201601282211 0000000953097829A3B77004B5DC2993BBAC7D63F000000001000000000001000000000000290000000000000000000000000N16010000000951135497777       049c8859bf577e79a75c32cd9d205f33
00011210455706ISENTO        CONSUMIDOR                         RJ3100NG0304277174201601282211 00000009676F986271ED5F237C9E7E0129077ABA4000000000599000000000599000000000174000000000000000000000000N160100000009621995196957      9c17a95ff0da3edb97da7ce6b3347f60
00012709549700ISENTO        CONSUMIDOR                         RJ3100NG0447211769201601282211 0000000979DF2D18553DD11FB602E7759EF144B80000000001000000000000000000000000000000000001000000000000000N160100000009721991272646      9f4fc11e299938303580cbe1c71dc719
00012206159783ISENTO        CONSUMIDOR                         RJ3100NG0339133647201601282211 000000098D108F9D7081EC9B04C8BBD42ED1F6E72000000001000000000001000000000000290000000000000000000000000N16010000000981135497777       87e0df3469577bafea36781c9582f749
00010008665648ISENTO        CONSUMIDOR                         RJ3100NG0336901943201601282211 00000009915DEA37BFDCD58D68CBC538246F57540000000000299000000000299000000000087000000000000000000000000N160100000009924999279231      1944b72dd244f1e9a13d2b6f25dbe6c5
00007932643759ISENTO        CONSUMIDOR                         RJ3100NG0445414555201601282211 000000100717382DB201EED442640F0481847F39F000000000299000000000299000000000087000000000000000000000000N160100000010021999341452      b15c8d413d9c1898b1d24756affb12f2
00009112385735ISENTO        CONSUMIDOR                         RJ3100NG0053303789201601282211 000000101EBB610BB86C446850D7F08527C78198B000000001000000000000911000000000264000000000089000000000000N16010000001011135497777       0070d1de81b1ae86d35113fc56cb964c
00013872048740ISENTO        CONSUMIDOR                         RJ3100NG0450055764201601282211 000000102F5C72FDA5FB0F10D546BB33822169F53000000000299000000000299000000000087000000000000000000000000N160100000010221995592076      294b302efba84b8aa4b96e77c34ea5b5
00017066695771ISENTO        CONSUMIDOR                         RJ3100NG0440772466201601282211 000000103E8ACFD10CA07B3B199ADF34018EDBB3F000000000299000000000299000000000087000000000000000000000000N160100000010321971619460      6eececa99c65e38d4ddd200a8828d13a
00009986137705ISENTO        MARIA DO SOCORRO MACIEL COSTA      RJ3100NG0445457113201601282211 0000001049F198EA158422EC192016D61FBACA9FF000000000299000000000299000000000087000000000000000000000000N160100000010421996951419      2c7b09ce7e559d7541ed2669b2977a40
00011641510706ISENTO        CONSUMIDOR                         RJ3100NG0447294549201601282211 000000105AFA2FD860F3722CA9A96B32043E886A0000000001000000000001000000000000290000000000000000000000000N16010000001051135497777       b1ae8c085ef0ed6be3afadf6ed710ca7
00012535963795ISENTO        CONSUMIDOR                         RJ3100NG0421877010201601282211 0000001063E3119DBD300880F6900F6080CBDF11F000000000299000000000058000000000017000000000241000000000000N160100000010621998315686      8804c9e015e76ab845949707a967d693
00087795167772ISENTO        Maria Gorete Veiga da Silva        RJ3100NG0398153327201601282211 0000001076CB5BFB39DE30655354738EDC9111625000000000299000000000299000000000087000000000000000000000000N160100000010721995693894      e29faff52a366b1f79af45bcf60e83d4
00002893163750ISENTO        CONSUMIDOR                         RJ3100NG0418163937201601282211 000000108187BF607E099E0D5F2DE6A037980B582000000000599000000000599000000000174000000000000000000000000N160100000010824999473929      c96237bd46b5d9d77bb9e1fb7a499849
00012678191702ISENTO        CONSUMIDOR                         RJ3100NG0194502104201601282211 0000001094ACE45760525A26E92FB56E4488A2AEA000000000599000000000599000000000174000000000000000000000000N160100000010924998218970      47d1b8907467dc0eab669e5008b3395e
00014176697725ISENTO        CONSUMIDOR                         RJ3100NG0185057654201601282211 000000110A0DC056D18C5EFCDFA9A0F644131D6D1000000000599000000000599000000000174000000000000000000000000N160100000011022997618391      65eb2a8965fd24354cd74336a27bd3d8
00017066695771ISENTO        CONSUMIDOR                         RJ3100NG0440772466201601282211 0000001119359F4BEA80C7D11FA333619868603E1000000000599000000000599000000000174000000000000000000000000N160100000011121971619460      dfd60445740747ee45f16c71b91d5e09
00010966144805ISENTO        BENILZA ELIAS DOS SANTOS           RJ3100NG0443538711201601282211 000000112652A093BD8493D65ED0703565617FF89000000000599000000000599000000000174000000000000000000000000N160100000011224998839772      295d1dc70edc3b2076de5d9acba1a0f4
00000661947769ISENTO        LAURINDO NETO SAMPAIO              SP3100NG0398155474201601282211 000000113AB31E164678DBDC05BC924468E23116A000000000599000000000599000000000174000000000000000000000000N160100000011321995297740      9418c1cfe4917852a6110d2e80b24795
00013872048740ISENTO        CONSUMIDOR                         RJ3100NG0450055764201601282211 000000114AA68AE57E404C8635CC31A330EE5FF55000000000299000000000299000000000087000000000000000000000000N160100000011421995592076      17c679d94d1a07cf84ce7f68ebf6f816
00049053809791ISENTO        CONSUMIDOR                         RJ3100NG0189834796201601282211 000000115A78C0F48F67FC6DC30EACE76D231D14F000000000599000000000599000000000174000000000000000000000000N160100000011522998638646      310995fc064bfe89dc57b4b47439f5fe
00080825095700ISENTO        CONSUMIDOR                         RJ3100NG0031261500201601282211 0000001168500429ACB52B9B3EB46AD0A014BC228000000001000000000001000000000000290000000000000000000000000N16010000001161135497777       e9ef687c042cc962ed01c4abe0319a9d
00006429208508ISENTO        CONSUMIDOR                         RJ3100NG0322839815201601282211 0000001172E579771EEBBA442244F963CA79622EE000000000599000000000599000000000174000000000000000000000000N160100000011721995716622      ffbf2a64c9af9128bae5c1ca2006f5fe
00007932643759ISENTO        CONSUMIDOR                         RJ3100NG0445414555201601282211 00000011850C55AEA156D1B32066AA42D2250E485000000000599000000000599000000000174000000000000000000000000N160100000011821999341452      0dc01ec52c1800155b2101e1952817d6
00004107736709ISENTO        ADRIANA DARRHIU DE OLIVEIRA        RJ3100NG0251748410201601292211 0000001194F76BE452217B3B702559C6F86DD3446000000000599000000000599000000000174000000000000000000000000N16010000001191135497777       016d0919990b57c1c89193b7027c0b1a
00003185101030ISENTO        CONSUMIDOR                         RJ3100NG0440609118201601292211 000000120F6BB6A74704734E1689D1FD011547BF9000000000599000000000599000000000174000000000000000000000000N160100000012021998152915      65d96fe1b21e42872bcfbfba31905416
00016048994761ISENTO        CONSUMIDOR                         RJ3100NG0450868639201601292211 000000121399BA99D7538C78A99F7CDB8935DE99E000000000299000000000000000000000000000000000299000000000000N16010000001211135497777       8dde982eb54792cd1f8af6ad2a6c668c
00009932233706ISENTO        CONSUMIDOR                         RJ3100NG0032726248201601292211 000000122CB88A8A5A56CAD3B066370D3D959B026000000001000000000001000000000000290000000000000000000000000N16010000001221135497777       1b9b05cd83e5325fb771d62902425762
00010460864726ISENTO        CONSUMIDOR                         RJ3100NG0341046955201601292211 000000123DB4507BBFFB835BD7E33A6D14EB141C7000000001000000000001000000000000290000000000000000000000000N160100000012324999695771      17acd6b424391e5ce5a491dbcf695111
00063556057700ISENTO        CONSUMIDOR                         RJ3100NG0165878188201601292211 000000124272657BDBB050CD82C6DCA19903CC75D000000001000000000001000000000000290000000000000000000000000N16010000001241135497777       d9f879f7259b4cfea7572a0b73849c50
00034298075818ISENTO        CONSUMIDOR                         RJ3100NG0433502059201601292211 00000012557832FABDA0486D5953524ADF4A88B2D000000000599000000000000000000000000000000000599000000000000N160100000012521997488252      1f7e40b995545803ee37ab77dd927b48
00066083770700ISENTO        CONSUMIDOR                         RJ3100NG0421044724201601292211 00000012651C9854C2B34ED5E7F05C1BEDB1C8C1D000000000599000000000599000000000174000000000000000000000000N160100000012621996697922      6d6a70ddd86fdab06eff9a0abe62f710
00001077141750ISENTO        CONSUMIDOR                         RJ3100NG0247266805201601292211 0000001279C6051FD52945812933BA35E7A5C4AA2000000001000000000001000000000000290000000000000000000000000N16010000001271135497777       abbe9a23db04f79de8440aec38fcbc38
00007366018724ISENTO        CONSUMIDOR                         RJ3100NG0069040432201601292211 00000012894246EDEFF0656C799A9F288ACD2CFBE000000001000000000001000000000000290000000000000000000000000N160100000012821999624881      51c1fa9304e466eff4333cf44457b223
00075507021791ISENTO        CONSUMIDOR                         RJ3100NG0432877431201601292211 000000129216749912ED842FF347B4BD95F82FEE6000000000299000000000299000000000087000000000000000000000000N16010000001291135497777       9c33f25ce89b22343ae7fe647ea88fdd
00003058370792ISENTO        CONSUMIDOR                         RJ3100NG0141703360201601292211 0000001300B9E79F87F07D62B75D4E8000D6C2F9D000000001000000000001000000000000290000000000000000000000000N16010000001301135497777       3d02a37a3fb04bcc8ed15e4c4b901f4a
00008978978703ISENTO        CONSUMIDOR                         RJ3100NG0220008887201601292211 000000131EF073DE24EF8B56D6355677190C76177000000001000000000001000000000000290000000000000000000000000N160100000013121997629155      0f3fe29b325f7a03f5f805c211fa26df
00059319437734ISENTO        CONSUMIDOR                         RJ3100NG0435367464201601292211 00000013261EBE0886BF2A47F43600884442696AF000000001000000000001000000000000290000000000000000000000000N16010000001321135497777       9b2ecb2d60f6dd33ece15390803b8989
00005426722609ISENTO        CONSUMIDOR                         RJ3100NG0338496234201601292211 0000001332DBCC56F4146BD84DD6D5AFA1D385E5A000000000299000000000000000000000000000000000299000000000000N16010000001331135497777       b142d37f9e866f73598783468015f825
00004797837721ISENTO        CONSUMIDOR                         RJ3100NG0439782300201601292211 0000001345DDBEF5766B151AF5E0110D811BFF888000000001000000000001000000000000290000000000000000000000000N16010000001341135497777       f9da6df045d01c50c132b7762490139c
00008103124761ISENTO        CONSUMIDOR                         RJ3100NG0253401182201601292211 00000013547F3A6092693C6EE6AB44C53F6D42E93000000000299000000000000000000000000000000000299000000000000N160100000013522999546525      faa9a3a80da4b3487d74f26ad14a20de
00012667053761ISENTO        RAQUEL LEITE WAINSAF               RJ3100NG0286030544201601292211 00000013604CEA3C20919F98254AFBF3925684415000000000299000000000299000000000087000000000000000000000000N160100000013621972932406      fbea24135f6d231981741df7fba9c378
00002977712720ISENTO        CONSUMIDOR                         RJ3100NG0297817318201601292211 00000013730BFF099441174D5AB9B172DC8B76EC2000000001000000000001000000000000290000000000000000000000000N16010000001371135497777       18cec75e5852547badb9236712ff6d65
00009535794760ISENTO        CONSUMIDOR                         RJ3100NG0357120018201601292211 000000138A10B6DAF55E8556C3404E976BF80A008000000001000000000001000000000000290000000000000000000000000N16010000001381135497777       789f883acbe5d6c23831969c3958e958
00076937976704ISENTO        CONSUMIDOR                         RJ3100NG0033846062201601292211 0000001397D5F1E26A4F92C67E9CC388580756990000000001000000000000401000000000116000000000599000000000000N16010000001391135497777       34ca02fe4a366b7c00c9f1597bedd922
00077296591749ISENTO        CONSUMIDOR                         RJ3100NG0107666856201601292211 000000140223A8BE6E25004A796D5F772699A9EC0000000001000000000001000000000000290000000000000000000000000N160100000014021998951756      d523e38014d7e1ab6cade9419d82d43c
00008554530799ISENTO        CONSUMIDOR                         RJ3100NG0066214457201601292211 00000014136B3FA25BB42977D9F68672BE998C625000000001000000000000402000000000117000000000598000000000000N16010000001411135497777       ec43c64583aed70a85c67866e8692ccc
00089080106704ISENTO        CONSUMIDOR                         RJ3100NG0079985837201601292211 000000142FEF3499025F4E657E41384BC68983DCA000000001000000000001000000000000290000000000000000000000000N160100000014221995894360      f5cd4aabdaec8cbbcb499562ee2b9bda
00015452917721ISENTO        THAMIRES DA SILVA PEREIRA          RJ3100NG0446392667201601292211 00000014336183C2A3C20DCD5471B9676B097AD47000000000299000000000299000000000087000000000000000000000000N160100000014321971373957      be9826fcc1be9ec6ed3c1f37d56ef9bb
00003185101030ISENTO        CONSUMIDOR                         RJ3100NG0440609118201601292211 00000014447AA00254F88CA7E10145B60ABF76CBC000000000599000000000599000000000174000000000000000000000000N160100000014421998152915      526188bee912489234d0b8a56bcda891
00008753027779ISENTO        CONSUMIDOR                         RJ3100NG0450860235201601292211 00000014558F132A453DBAECF0DB05EF85E51012B000000001000000000001000000000000290000000000000000000000000N160100000014524998593419      a66f57c0c446aa9c6336215cb9e5a9c8
00018239774725ISENTO        CONSUMIDOR                         RJ3100NG0417490290201601292211 000000146B3DEFCA1F089E5513AB0D9F45E6D833F000000001000000000001000000000000290000000000000000000000000N16010000001461135497777       b8cbfcc23b9150c27ed826067a2bc944
00013791238795ISENTO        CONSUMIDOR                         RJ3100NG0107423688201601292211 000000147D058E456DC1D91F382D19BC1F2884571000000001000000000001000000000000290000000000000000000000000N16010000001471135497777       2a4f28a5dfc9d30932072577d03e4f95
00014830665769ISENTO        CONSUMIDOR                         RJ3100NG0439264999201601292211 000000148B5148BD98C072886E6CA913789A6ABD5000000000299000000000000000000000000000000000299000000000000N160100000014821971926800      1910dbfda5dc647941558a404bbb477a
00014830665769ISENTO        CONSUMIDOR                         RJ3100NG0439264999201601292211 000000149D89FBC5FF1459294388CB3787F2E70A7000000000599000000000599000000000174000000000000000000000000N160100000014921971926800      9d6a6a52940abab7efe692abc494003f
00002893163750ISENTO        CONSUMIDOR                         RJ3100NG0418163937201601292211 000000150E86B41359EF7B6C85B803883FD7EF947000000000599000000000599000000000174000000000000000000000000N160100000015024999473929      7b815d51cadacd1dc0a9568d8482dfe4
00017379561790ISENTO        CONSUMIDOR                         RJ3100NG0424714666201601292211 000000151C9E51BD44659AE4AAB8713AA8F9445DE000000001000000000001000000000000290000000000000000000000000N16010000001511135497777       671120963c5f644fd77e163aed52aba4
00009506116709ISENTO        MICHELE BARBOSA DE SALLES          RJ3100NG0099552432201601292211 0000001527F8C90F65394DC315E832A411281BED7000000000599000000000599000000000174000000000000000000000000N160100000015222999239068      ce5ecbe7b925728088b9cfab4da2fc35
00000323737757ISENTO        CONSUMIDOR                         RJ3100NG0074221137201601292211 000000153F915A1A7384646CB47A783A71642BF6E000000001000000000000401000000000116000000000599000000000000N160100000015321996292867      05db2d2ae61dce1a87fa3371e6d81625
00005548708783ISENTO        CONSUMIDOR                         RJ3100NG0126328323201601292211 000000154BF4482E54ADBB88E703D55FBA73D63E2000000000299000000000000000000000000000000000299000000000000N160100000015424999753125      2afefa6197b01fdcef2150a93daba114
00087291037700ISENTO        CONSUMIDOR                         RJ3100NG0162824576201601292211 000000155DEE6DF3012E75CB2AA4F8CF5B49F5527000000001000000000001000000000000290000000000000000000000000N160100000015524999176249      bd7cf02e126512712b86b4df26eb9533
00033175713734ISENTO        CONSUMIDOR                         RJ3100NG0444467015201601292211 000000156BD226D5131CA9DC268F86551C73B56F6000000001000000000000701000000000203000000000299000000000000N16010000001561135497777       d82523af766e05cba528a9e401216e4a
00014442754705ISENTO        CONSUMIDOR                         RJ3100NG0451290548201601292211 000000157D3B6B41223628A3C42065F5CC10E7408000000001000000000001000000000000290000000000000000000000000N16010000001571135497777       2510bb8726b716c921ec3d6df5860536
00009366201709ISENTO        CONSUMIDOR                         RJ3100NG0285441000201601292211 000000158EF6E17136089DE58D5411EBC2FC94E95000000001000000000001000000000000290000000000000000000000000N16010000001581135497777       233b4928225210baf4d18a849b3d7f9b
00014530233723ISENTO        CONSUMIDOR                         RJ3100NG0380994632201601292211 000000159CBF3AAEFF1ED664311967809489D1F7D000000001000000000001000000000000290000000000000000000000000N16010000001591135497777       8a294aceb88a845fd61a406f630fed48
00004163633774ISENTO        CONSUMIDOR                         RJ3100NG0443338215201601292211 00000016056F586B8A3E360F7CA244F3A4373A43B000000001000000000000704000000000204000000000296000000000000N16010000001601135497777       f52c22c9ceb01c2d9c28742b2c5df7a1
00082715068034ISENTO        CONSUMIDOR                         RJ3100NG0427758811201601292211 000000161E77F986BC40008E35F1186604C11BFED000000000599000000000000000000000000000000000599000000000000N16010000001611135497777       4a163234c8e85596cc5cbb58e944f31f
00016776503702ISENTO        MARIANA BORSALI MAGALHAES          RJ3100NG0446109023201601292211 000000162817E608C3372F68CF9D55542E01CDF70000000001000000000001000000000000290000000000000000000000000N160100000016221997407148      090519793dc77d9132dc1cceaaf0b43e
00009506116709ISENTO        MICHELE BARBOSA DE SALLES          RJ3100NG0099552432201601292211 0000001634952A24CF9D90180750897ACA4644561000000000599000000000599000000000174000000000000000000000000N160100000016322999239068      b6a1905488501641f8da250fddf4e977
00009120835736ISENTO        CONSUMIDOR                         RJ3100NG0414757194201601292211 000000164735E190E1B1C1AAB20365D6853E6E555000000000599000000000599000000000174000000000000000000000000N160100000016421998547952      c0e339fa280afb030f6e6c00454296d9
00086191578768ISENTO        ANTONIO TELES SOARES               RJ3100NG0436607722201601292211 0000001651A96215C9D20DC0778F823E4C9D97598000000001000000000000000000000000000000000001000000000000000N160100000016522998416229      be2cec41b1fdc2eb3d2e188271979422
00012480315711ISENTO        CONSUMIDOR                         RJ3100NG0164585042201601292211 00000016678A21F0F10DA3D1C3DFB14F5B72BD817000000001000000000001000000000000290000000000000000000000000N16010000001661135497777       c14aa4487c9df19c1254358e36179062
00005201155707ISENTO        CONSUMIDOR                         RJ3100NG0423933702201601292211 000000167D94300690085909CFDBE69CA16CAB078000000001000000000001000000000000290000000000000000000000000N16010000001671135497777       0bc5d897cb099ab809111788954201c0
00000000000000ISENTO        CONSUMIDOR                         RJ3100NG0439221698201601292211 000000168348D8B115D0DF34F2037D6D3E193EB40000000000599000000000599000000000174000000000000000000000000N160100000016821993368111      f6288ea13f937989e63ca6aa29c7b21a
00075507021791ISENTO        CONSUMIDOR                         RJ3100NG0432877431201601292211 000000169CA8540B955A25DE0F36DCA3B6AF4D234000000000299000000000299000000000087000000000000000000000000N16010000001691135497777       57d9fb286dc9eeedc2a76e0ed29e3497
00008292623779ISENTO        LISSIA ALVES DOS SANTOS AMORIM     RJ3100NG0439602117201601292211 0000001701C61CFC2240AA7AA67BFAA42DD8CFA54000000000599000000000599000000000174000000000000000000000000N160100000017021995419589      b939b8b22d3bcffec8834564f222b2c6
00003218393744ISENTO        CONSUMIDOR                         RJ3100NG0366772403201601292211 0000001717424C86443C99554DFAF6920A6DA8D93000000001000000000001000000000000290000000000000000000000000N16010000001711135497777       92c1ba79e54054224f146eb45ec7386b
00009436793464ISENTO        CONSUMIDOR                         RJ3100NG0292845217201601292211 000000172935991C174CACBC1B2B12EDFBBDB40BC000000001000000000000310000000000090000000000690000000000000N16010000001721135497777       fb68e45adebf2299c3cd8bc4e5c34c33
00037613367720ISENTO        CONSUMIDOR                         RJ3100NG0439984771201601292211 000000173D897595943865CE06C9516528981EBAC000000001000000000001000000000000290000000000000000000000000N16010000001731135497777       f176e2baea9691381cb8610461a003de
00037613367720ISENTO        CONSUMIDOR                         RJ3100NG0439984771201601292211 0000001748919B1989141F3384A36569FC9EAF5B4000000000299000000000299000000000087000000000000000000000000N16010000001741135497777       73162d7a64e57a85191f6df7cbc884d9
00007354139750ISENTO        DANIELE PONTES DE SOUZA            RJ3100NG0172463264201601292211 0000001755C41D3A43BE52E8893603654445D0D4C000000001000000000001000000000000290000000000000000000000000N160100000017522997364456      d36db8c4e258d2f0c903973f629cd0c7
00078228727704ISENTO        CONSUMIDOR                         RJ3100NG0101700061201601292211 0000001762D65D480E1B2F8244A004070E8762070000000001000000000001000000000000290000000000000000000000000N16010000001761135497777       d78d60ed3c8accc637be000c8ab28b39
00006975708789ISENTO        CONSUMIDOR                         RJ3100NG0244921636201601292211 0000001776CE18B7BE2B19F4F8979181B82D07B33000000001000000000001000000000000290000000000000000000000000N16010000001771135497777       9d32bf0a2d46db072124270a26c6ddd3
00009233049752ISENTO        CONSUMIDOR                         RJ3100NG0034502067201601292211 0000001782187FF53F4F6F0557721B0F11981FACF000000001000000000000701000000000203000000000299000000000000N160100000017824999189292      dda32c5c6f59bd7e264669f661b1db25
00014989911733ISENTO        CONSUMIDOR                         RJ3100NG0144809816201601292211 000000179454B281C95F75DDCF91763BE3728DC3E000000001000000000000813000000000236000000000187000000000000N16010000001791135497777       e6a322609aefcf1d5c270f4b766b7444
00051542005787ISENTO        CONSUMIDOR                         RJ3100NG0447497985201601292211 000000180921ECD5A7B5190DE0B2825F1699AD7B4000000000599000000000201000000000058000000000398000000000000N160100000018021999271629      6c6d82918f190bb2150064ace47744d6
00051542005787ISENTO        CONSUMIDOR                         RJ3100NG0447497985201601292211 00000018186A0661EFEFA757DC9783B8F2039DACC000000000599000000000599000000000174000000000000000000000000N160100000018121999271629      fe819057c9c6cfd2ff0508042db624c0
00035090261873ISENTO        MARAISA DOS SANTOS SOUZA           RJ3100NG0466084220201601292211 000000182A4117B47FB7CC0BA38832163A83C07C0000000000299000000000299000000000087000000000000000000000000N160100000018221971904150      4f809bdbf48a9eaa5fe0648f030ce92b
00007781902777ISENTO        CONSUMIDOR                         RJ3100NG0340842526201601292211 000000183001145E1745FBDEE7598AAD69AA40BC5000000001000000000001000000000000290000000000000000000000000N16010000001831135497777       e96d83d3c1eef65b16b9b52578af64e3
00097084336753ISENTO        CONSUMIDOR                         RJ3100NG0440029397201601292211 000000184907256707E115A26250E631BC2B97C2B000000000299000000000299000000000087000000000000000000000000N16010000001841135497777       faeff01e97c2bb9f828f7b293168d85b
00083406522734ISENTO        CONSUMIDOR                         RJ3100NG0448520757201601292211 000000185C399F64CC6F4E399B9AFFB384D61AC91000000000599000000000599000000000174000000000000000000000000N160100000018521997135319      bafd42ebbabbd7b0df1f2aba53960044
00084420820772ISENTO        CONSUMIDOR                         RJ3100NG0240038687201601292211 0000001866CC1F0C7F773B67E17D312D82CEB31E1000000001000000000001000000000000290000000000000000000000000N16010000001861135497777       e2c628f981ca7b5b0edc4a541d1481a8
00011704936705ISENTO        CONSUMIDOR                         RJ3100NG0157865980201601292211 000000187054EFB89BC170E820A64F455156994CF000000001000000000001000000000000290000000000000000000000000N160100000018724998214259      1b68af5894f6368b829ecd7dd2d5fb4a
00013393063790ISENTO        CONSUMIDOR                         RJ3100NG0428748708201601292211 000000188EE22EFEE2A82D9769F7C4E69C2026A5B000000001000000000001000000000000290000000000000000000000000N16010000001881135497777       ac89fe963d6282edbd0e2cdf7cfe9fb7
00002220818721ISENTO        CONSUMIDOR                         RJ3100NG0245711513201601292211 00000018977B70BD272E77846B3B69975FE2F192C000000001000000000001000000000000290000000000000000000000000N16010000001891135497777       76999e50ea6cccd96f5582c981bc3085
00017972933707ISENTO        CONSUMIDOR                         RJ3100NG0438033008201601292211 0000001901AD9127B6F292C834A8639BF5CFBCE82000000001000000000001000000000000290000000000000000000000000N16010000001901135497777       fdc52717c40880587ceec4e2f68dbf4a
00015221651777ISENTO        CONSUMIDOR                         RJ3100NG0329394839201601292211 0000001915A42619EAABAB899B736EED52B72098A000000000599000000000599000000000174000000000000000000000000N160100000019121999873286      d1ffae480da41ec939193f009b4c9a96
00016048994761ISENTO        CONSUMIDOR                         RJ3100NG0450868639201601292211 0000001924F145DD777A33B725EF7268F3BB62407000000000299000000000299000000000087000000000000000000000000N16010000001921135497777       d00b1c873fbbb0734d6627472bb8f643
00000023587784ISENTO        ANTONIO QUIDENILO DE SOUSA         RJ3100NG0138602610201601292211 0000001938412A3E5325AAE49BE9C3486094D3C9C000000001000000000001000000000000290000000000000000000000000N160100000019321996215005      1cbedc79a787a0b9f806fa63cdbaae4f
00075507021791ISENTO        CONSUMIDOR                         RJ3100NG0432877431201601292211 0000001943367A37F02F0BB91DA47D2659910C743000000000299000000000299000000000087000000000000000000000000N16010000001941135497777       0e83bc28206ca454aaaab61c92d09055
00090846664704ISENTO        CONSUMIDOR                         RJ3100NG0332666995201601292211 000000195EDB8AB02C50E3A2099732EAB2BA4C3BC000000001000000000001000000000000290000000000000000000000000N160100000019521998196755      4e2759c3cda805c5f46254a3ec426cba
00008411322750ISENTO        ALESSANDRO LIMA DE SOUZA           RJ3100NG0054042733201601292211 000000196B4BE871D4775D7383BAA8A12F84C4659000000000299000000000000000000000000000000000299000000000000N160100000019624998366731      cadba61f9a2012eac5405c2212825b2b
00001049645707ISENTO        CONSUMIDOR                         RJ3100NG0147894516201601292211 00000019703E60473592FD92645F5FAB488BA94EC000000001000000000000000000000000000000000001000000000000000N160100000019721972189576      55a5a3bcd6d12893e89f7c4967da6285
00031756395187ISENTO        CONSUMIDOR                         RJ3100NG0449278571201601292211 00000019849ABFB203DDDBDC0D80C7EE61F3BE5F9000000001000000000001000000000000290000000000000000000000000N16010000001981135497777       d266d21f4efef473866be68f573dd1b3
00007720414748ISENTO        CONSUMIDOR                         RJ3100NG0431424247201601292211 000000199CF6EA5A69378EAC22AE9A751464F8F29000000000299000000000299000000000087000000000000000000000000N160100000019922997761839      6ce2834a236a09b0a33172e2c981681f
00097084336753ISENTO        CONSUMIDOR                         RJ3100NG0440029397201601292211 000000200990C0DBD59EB174A15F76857E482CDE1000000000599000000000599000000000174000000000000000000000000N16010000002001135497777       22bf7ba3a40c2df323669c523485c746
00097084336753ISENTO        CONSUMIDOR                         RJ3100NG0440029397201601302211 00000020109CB5EF18EC30FDACEF92A9BA25A8FB0000000000299000000000299000000000087000000000000000000000000N16010000002011135497777       4a05de0ed8001a81494548094c0c8818
00007932643759ISENTO        CONSUMIDOR                         RJ3100NG0445414555201601302211 000000202465CB3597FF172F8F521135A47D9DFD1000000000599000000000599000000000174000000000000000000000000N160100000020221999341452      beb04a812d1d84e5b0800c44011f8a95
00008455137703ISENTO        CONSUMIDOR                         RJ3100NG0438737422201601302211 0000002034AC0FC3371734A3310285AC52577862F000000000299000000000000000000000000000000000299000000000000N160100000020321999911923      e329c826a499e81c0ba57ab00c0e81b4
00005407092719ISENTO        CONSUMIDOR                         RJ3100NG0311305976201601302211 00000020495802BB30E51B101A260C4CF25B93717000000001000000000000203000000000059000000000797000000000000N16010000002041135497777       f632088b80a02335d19f96881372aa3d
00072719966720ISENTO        CONSUMIDOR                         RJ3100NG0340581286201601302211 000000205D7D12D703EFF7D020E778B26F2DE3D3E000000000599000000000000000000000000000000000599000000000000N160100000020521967347961      b4bfadfa0309c775070e68f67d477120
00017066695771ISENTO        CONSUMIDOR                         RJ3100NG0440772466201601302211 0000002063412E7291E4045E54505D466290B4847000000000599000000000599000000000174000000000000000000000000N160100000020621971619460      14cc0014e7da841a27170f59bd23d7f0
00013006041747ISENTO        CONSUMIDOR                         RJ3100NG0253595527201601302211 0000002074F91D71139C34130EDB9E5B7C858ABFD000000001000000000001000000000000290000000000000000000000000N16010000002071135497777       89fc4fe4dce2d190c262428141ec270d
00042344638687ISENTO        CONSUMIDOR                         RJ3100NG0221603390201601302211 0000002088795A182C9C333ABB24E490BE239A1AE000000001000000000001000000000000290000000000000000000000000N16010000002081135497777       3410f8d7b6b0b971246f877c2b9c10e6
00012136584707ISENTO        CONSUMIDOR                         RJ3100NG0344827750201601302211 000000209F8D16BC05B05B01C85B0AE980D3D6244000000001000000000001000000000000290000000000000000000000000N16010000002091135497777       c5314c74b9c166b4035c0424b7b27ab9
00012002074402ISENTO        CONSUMIDOR                         RJ3100NG0437969003201601302211 00000021079FF5128A788B8E0098C2C7D7207E564000000001000000000001000000000000290000000000000000000000000N16010000002101135497777       f694f3f6382f45859b096c9008cf42d7
00007218546722ISENTO        CONSUMIDOR                         RJ3100NG0404839583201601302211 000000211F36C7E224E29DB0CB24305389DDBA2AD000000000599000000000000000000000000000000000599000000000000N160100000021121996667421      379dcfec2bc0dc7cbc6c7b970d1e5a26
00008292623779ISENTO        LISSIA ALVES DOS SANTOS AMORIM     RJ3100NG0439602117201601302211 0000002127E8BAA99F53D1DAC51F303D2573870E4000000000599000000000599000000000174000000000000000000000000N160100000021221995419589      b891da5c42de1dfb26b2c87b39d5352d
00003066971732ISENTO        CONSUMIDOR                         RJ3100NG0425157213201601302211 000000213B31B6F53EEF13D60EA8753AC1F16C826000000000299000000000299000000000087000000000000000000000000N160100000021322996938279      97b72b5c372ffcc6ca586439c073db46
00009372840769ISENTO        ISABELLA NOGUEIRA DA SILVA SOARES  RJ3100NG0296550094201601302211 000000214E34A81305A624FCFF89977BB21B231D3000000001000000000001000000000000290000000000000000000000000N16010000002141135497777       66c1acf2c662d233a0a3df9da1199982
00015565787769ISENTO        CONSUMIDOR                         RJ3100NG0422321985201601302211 000000215E78C537A72F54EB1B59CE8BEABF71DDB000000000299000000000299000000000087000000000000000000000000N160100000021521995517967      6aa32fbf7b0290a4a27152b36708ced4
00008814343705ISENTO        CONSUMIDOR                         RJ3100NG0448687135201601302211 0000002163F225D29EFDC8F1FEA58BF5B103CF82E000000001000000000001000000000000290000000000000000000000000N16010000002161135497777       006aa301e6567d8916faf786117efab3
00003059483779ISENTO        ANGELA BARBOSA ANSELMO             RJ3100NG0307087391201601302211 0000002177FC7B6CF845AF627C1EFCFC1776D2E1C000000001000000000001000000000000290000000000000000000000000N16010000002171135497777       44a082edf6a6101644f85f8c7a583d1b
00015110013721ISENTO        CONSUMIDOR                         RJ3100NG0299656965201601302211 0000002188C07EFEDDF5B6DFE255DB9246A8B88B5000000000299000000000299000000000087000000000000000000000000N160100000021821999292874      885e4657160ea96f14c8ea3357f15226
00011095185799ISENTO        CONSUMIDOR                         RJ3100NG0078651689201601302211 000000219F363158B0B46E8DD0A98CC64C85EC40F000000001000000000000401000000000116000000000599000000000000N160100000021921998134847      16321a9232bac4777e87acc0c148fabd
00023349573720ISENTO        CARLOS GONCALVES                   RJ3100NG0319542864201601302211 000000220EEE39719EDC3888AA7F858830E1E3821000000001000000000000145000000000042000000000855000000000000N160100000022024999927939      b2cd9ff8e3d0a01a847c8bcf98e2862e
00087139740763ISENTO        CONSUMIDOR                         RJ3100NG0439168980201601302211 0000002211037DA15EF6BB1B7D9A8EAB538DEBDA4000000001000000000001000000000000290000000000000000000000000N16010000002211135497777       3c6502a98d244ff4e380e93b45873cff
00010601328779ISENTO        CONSUMIDOR                         RJ3100NG0381006036201601302211 0000002224F6E7B6ECB8C9BCE21F10CCE92540F21000000000599000000000599000000000174000000000000000000000000N16010000002221135497777       f194711987807b0de06d744adb7a7caf
00011856691756ISENTO        CONSUMIDOR                         RJ3100NG0034329479201601302211 000000223E9B6056D1097508FC89893792B37DB33000000001000000000001000000000000290000000000000000000000000N16010000002231135497777       8016f568a4ebf2ffccc259d24b08d89f
00010706046749ISENTO        PLACIDO ANTONIO DUARTE             RJ3100NG0388598546201601302211 0000002245C3C080EA3793BD56B5CF430CFC186F2000000001000000000001000000000000290000000000000000000000000N160100000022424998424201      8fb8a37d0098a22d08527df630ed3866
00054569648720ISENTO        CONSUMIDOR                         RJ3100NG0280951644201601302211 0000002254E14A4E836A3A9E6E7ED6EF1D233D6C7000000001000000000001000000000000290000000000000000000000000N16010000002251135497777       ee9699e4d86e9668e2c3fc6385b305cf
00074602659772ISENTO        CONSUMIDOR                         RJ3100NG0439844717201601302211 0000002263F54D2BDA7778F40511F6137EF8AC781000000001000000000001000000000000290000000000000000000000000N160100000022621996762903      1b9e6e327aa95d848b96aeca4877cc6a
00010785894705ISENTO        Cintia dos Reis Almeida            RJ3100NG0384992269201601302211 000000227A6F725B4DA13AF4D221E3D125B65DFDE000000001000000000000000000000000000000000001000000000000000N160100000022721972379991      68759b718117c1c8241198d92c6c9dab
00066712270715ISENTO        CONSUMIDOR                         RJ3100NG0431730084201601302211 00000022834C9E3E204330FF3AD47392E61F7E13C000000001000000000001000000000000290000000000000000000000000N16010000002281135497777       c572ec75b6c047a6b888aa5e9ff3ae1d
00010327937750ISENTO        CONSUMIDOR                         RJ3100NG0386097307201601302211 000000229BD4D584F539F79DD3FA09BDD47982790000000001000000000001000000000000290000000000000000000000000N160100000022921983219395      7c3d4db955521fa9e40afa2965f3c755
00016048994761ISENTO        CONSUMIDOR                         RJ3100NG0450868639201601302211 00000023050C9C5F7ECFBAD60F18106FB4B8EF59C000000000299000000000299000000000087000000000000000000000000N16010000002301135497777       ac41110ccaa16c97e400888b4c37c133
00054673879520ISENTO        CONSUMIDOR                         RJ3100NG0439561334201601302211 000000231052AC3FCCF36B73382A011AE301C47E1000000000599000000000599000000000174000000000000000000000000N160100000023121996191020      c6b706ae2fa15fbfba9f182e3139474b
00017850118715ISENTO        CONSUMIDOR                         RJ3100NG0071146777201601302211 0000002322239BB5B401B2148A16FCC2EDBD04B3F000000001000000000001000000000000290000000000000000000000000N160100000023221995696070      d144cb21317f2807fdb816d3c126241e
00000581231724ISENTO        ANA LCIA PEREIRA CMARA           RJ3100NG0164149588201601302211 0000002333FDEDDAA5F1CC0595938234718AAB895000000001000000000001000000000000290000000000000000000000000N160100000023321972838411      64b5437b17492920e84984e0eecb1715
00012827904713ISENTO        CONSUMIDOR                         RJ3100NG0343150417201601302211 00000023479B5DE00A5BEA281CB33BF30DEE00A97000000001000000000000000000000000000000000001000000000000000N16010000002341135497777       2280cef772b4bbff5a5c6f05d03afcc2
00009830097757ISENTO        CONSUMIDOR                         RJ3100NG0032974617201601302211 0000002352C2A54D5EC3B0D28430076A8DA41D90D000000001000000000001000000000000290000000000000000000000000N16010000002351135497777       bbb377a8f7a692728df4daa2b2df2e13
00001514360705ISENTO        CELIA ASSIS NUNES                  RJ3100NG0388378170201601302211 00000023603541D8A3328779120A9A4DC03111097000000000299000000000000000000000000000000000299000000000000N160100000023622997798499      1126b7617ec32729ea157f7f55bdb3cf
00002889032779ISENTO        CONSUMIDOR                         RJ3100NG0235523995201601302211 000000237F4899B1F06DC38F014718D2AC6E88FAE000000001000000000000197000000000057000000000803000000000000N160100000023722999411228      da2fc0314935d93c066620b7340d4727
00004267063745ISENTO        CONSUMIDOR                         RJ3100NG0106217521201601302211 000000238CDC10A236FA713AD05DC140A08A7B751000000001000000000000312000000000090000000000688000000000000N160100000023821971476424      5d02dc4c3552ac069d812ec0fd277521
00084613165768ISENTO        CONSUMIDOR                         RJ3100NG0450887371201601302211 00000023978F76CE8EE28FFE633446AC0E802FBAA000000001000000000001000000000000290000000000000000000000000N16010000002391135497777       001113ec578adca45a60fe8a6d60dcdf
00010287964710ISENTO        CONSUMIDOR                         RJ3100NG0440068899201601302211 0000002401873195CAC83A86ACB2FACC692C2F645000000000599000000000599000000000174000000000000000000000000N16010000002401135497777       64743a0a75d4e4155a6d87b7e209fe6b
00012510278738ISENTO        CONSUMIDOR                         RJ3100NG0098288544201601302211 000000241B0AC3B60680251AAAD6FDDF4538FE77A000000001000000000001000000000000290000000000000000000000000N160100000024121997722692      57fbfe0990499f7d7ad4e638e9638d4b
00023616555787ISENTO        CONSUMIDOR                         RJ3100NG0273108061201601302211 000000242C1E27B253D7D4DAFBBE539D5518D7895000000001000000000000796000000000231000000000204000000000000N160100000024221997948122      381ceae31fc90a1939fb3b449838703e
00004465420757ISENTO        CONSUMIDOR                         RJ3100NG0083417061201601302211 000000243BC896C793397401080D09AABD9CCD723000000001000000000001000000000000290000000000000000000000000N16010000002431135497777       eddd883742522691c531c3b73cbf97a9
00000087055775ISENTO        CONSUMIDOR                         RJ3100NG0204710889201601302211 000000244F7BB7EC6A7EDF87361F4485E6BAB6EA4000000001000000000000000000000000000000000001000000000000000N16010000002441135497777       53449f203e11b4d3a4260fa74f2feb9b
00011014531764ISENTO        CONSUMIDOR                         RJ3100NG0443119875201601302211 0000002453F7ECF4CF0C0AEA8828A8D33102CC51A000000001000000000000305000000000088000000000695000000000000N16010000002451135497777       97f9b901a23dcd35ba5913d2f908fa07
00075507021791ISENTO        CONSUMIDOR                         RJ3100NG0432877431201601302211 000000246447D54CD3E0BD7D77A0DF8AEB8006726000000000299000000000299000000000087000000000000000000000000N16010000002461135497777       8121be0e33c247c548d72b805e90d1dc
00011014531764ISENTO        CONSUMIDOR                         RJ3100NG0417353121201601302211 00000024776B1A66120F9273ADEDE73D45AF1A477000000001000000000001000000000000290000000000000000000000000N16010000002471135497777       370294a5b40e4e1daf335540c6354ee7
00086372068753ISENTO        CONSUMIDOR                         RJ3100NG0409616045201601302211 0000002488993EB46423D3955705304330774A88D000000000599000000000599000000000174000000000000000000000000N16010000002481135497777       0d29e4b44a7b7919b1c8108a79b02b73
00097084336753ISENTO        CONSUMIDOR                         RJ3100NG0440029397201601302211 0000002490E4C7CD2D1AE6FD110A79E6DC88F6424000000000299000000000299000000000087000000000000000000000000N16010000002491135497777       ac6d13adaf353383af5194d16487edc4
00054673879520ISENTO        CONSUMIDOR                         RJ3100NG0439561334201601302211 000000250976ECDADA18329A1B5E74C62AD65ED3B000000000599000000000599000000000174000000000000000000000000N160100000025021996191020      f0556fc3286ee56a4231b9b16567e296
00043145026810ISENTO        RODRIGO DA SILVA FELISBERTO        RJ3100NG0390078762201601302211 0000002514C4205B7FF18B7920C70391862A3E7C8000000001000000000000801000000000232000000000199000000000000N160100000025124998381703      052d86dba9e6bc4a5f67031180effc27
00009856106702ISENTO        FATIMA MACHADO COUTINHO            RJ3100NG0448194608201601302211 000000252F81DC8E174A6B4994F71A8BAD548BDD2000000000299000000000299000000000087000000000000000000000000N160100000025221998979720      5065c08e13b662d69b5f81e742fcc70a
00008411258726ISENTO        CONSUMIDOR                         RJ3100NG0031235687201601302211 00000025308F63564970D283113EE18E2BDE91E29000000000299000000000000000000000000000000000299000000000000N160100000025322999634974      77e95df0c27ef13d9ae8817db01128ab
00013528760788ISENTO        PHELIPE DE OLIVEIRA DINIZ          RJ3100NG0365229623201601302211 000000254DD3B92461B73E784A360174C40E84579000000000599000000000599000000000174000000000000000000000000N160100000025421999817886      84dc9bb1245dd864250e6cfdb7a57c9a
00099421992768ISENTO        CONSUMIDOR                         RJ3100NG0197653608201601302211 000000255CA292D49502923BDFA3FEE780330E34C000000001000000000001000000000000290000000000000000000000000N16010000002551135497777       271355250cd953ef679c40d655492605
00012468561740ISENTO        CONSUMIDOR                         RJ3100NG0126015696201601302211 00000025655D15013DC5B75F05087CED27BEAD50D000000001000000000001000000000000290000000000000000000000000N160100000025624999747347      1630e1aabb045c68b4764250a7dd7114
00013528036745ISENTO        CONSUMIDOR                         RJ3100NG0429838933201601302211 000000257C7D0B05207528A2343AB4B0F576EF4DA000000000599000000000599000000000174000000000000000000000000N160100000025721972249313      891dc5cbe06ae454788fd864bcf4cdf2
00012515178707ISENTO        CONSUMIDOR                         RJ3100NG0413948190201601302211 000000258A4770E1404341FFF53CB5D3081C9D0D5000000000599000000000599000000000174000000000000000000000000N160100000025821971920252      509e50145fef1dc6abcdbf1ffe736a0f
00008219340746ISENTO        CONSUMIDOR                         RJ3100NG0221711701201601302211 000000259D7E8E5AF511CCA0060A8098A66F3B4E1000000000299000000000299000000000087000000000000000000000000N160100000025922997279562      1bcac7db7fc15b9f5d47f0736661c7d2
00010527752762ISENTO        CONSUMIDOR                         RJ3100NG0245129746201601302211 0000002604A56CD4856BA923ED843D875C56026E0000000001000000000001000000000000290000000000000000000000000N16010000002601135497777       7fc7a72e85a4124a272c818866040f67
00010287964710ISENTO        CONSUMIDOR                         RJ3100NG0440068899201601302211 0000002612C28D55CA78E7DFB063C8690CE062000000000000599000000000599000000000174000000000000000000000000N16010000002611135497777       b15ac581b650794df0bd6cb6670e8e2a
00011091945799ISENTO        CONSUMIDOR                         RJ3100NG0094125722201601302211 0000002629EFECFF52ADC32F6FDECD012C9C2E3DC000000001000000000001000000000000290000000000000000000000000N160100000026221971287376      ccf1f97c5c7e3570787cf433298229cd
00048303488791ISENTO        CONSUMIDOR                         RJ3100NG0234557683201601312211 00000026394A18C640760D2B6B16DE9C519F6CC5B000000001000000000000000000000000000000000001000000000000000N16010000002631135497777       b890c82830739670d08a9fa684ae5465
00007587927786ISENTO        CONSUMIDOR                         RJ3100NG0127703616201601312211 000000264EC3BC43E6CEF6543ED9353B537E378FC000000000299000000000299000000000087000000000000000000000000N160100000026421988979989      53dfbd0e108a088c25e1ea0dc4de3096
00005432007797ISENTO        CONSUMIDOR                         RJ3100NG0066798720201601312211 00000026513FC138EC55D52B911A6BCFE217094CA000000001000000000000301000000000087000000000699000000000000N16010000002651135497777       36013c155cf623693743c12ceba6689a
00005765553710ISENTO        CONSUMIDOR                         RJ3100NG0359673652201601312211 000000266D217CD909497E2C48FFA980BCFC82659000000001000000000001000000000000290000000000000000000000000N16010000002661135497777       c906f63f23698e0b02ec0dc6e90f2310
00080766315720ISENTO        CONSUMIDOR                         RJ3100NG0336110452201601312211 0000002673A5E3ABA00CC9E140B59D6EF766572A7000000001000000000001000000000000290000000000000000000000000N160100000026721996482528      135bcb3400240f062c650f4dc8b0bb6a
00020137060734ISENTO        CONSUMIDOR                         RJ3100NG0400641366201601312211 00000026833622E0E67D1DEDAF62AC3F9E2B13F77000000001000000000001000000000000290000000000000000000000000N16010000002681135497777       99ccc264bc72f6f276fa9636adc5d0ad
00009283695798ISENTO        CONSUMIDOR                         RJ3100NG0115869762201601312211 000000269AEBBC83122ABAF51756BEB88BCE0CDC3000000001000000000001000000000000290000000000000000000000000N160100000026924999169264      1da759fa1ecb0fb4bc2a0699f8aa734c
00008618026751ISENTO        CONSUMIDOR                         RJ3100NG0031266142201601312211 000000270387B52212330C9AA538162E2CD6CFE00000000000299000000000000000000000000000000000299000000000000N160100000027022999951491      21dec4e1dae5d7481880fa33ead38530
00001785580795ISENTO        CONSUMIDOR                         RJ3100NG0150831206201601312211 0000002718FF0035422986DBEBB63A28468DE5129000000001000000000001000000000000290000000000000000000000000N160100000027121972379443      eccbcb11f69d836027e826c351d0bdd0
00080217656749ISENTO        CONSUMIDOR                         RJ3100NG0393661020201601312211 000000272B1B218395D258DE5E0986D6D1137E526000000001000000000000310000000000090000000000690000000000000N16010000002721135497777       0b1981d63aa277158eac4e958a5510f0
00040661571734ISENTO        CONSUMIDOR                         RJ3100NG0031803410201601312211 000000273EE1B4E8FDC437A095AE8DECD43093CEC000000001000000000000101000000000029000000000899000000000000N160100000027321998513457      8f640d93337cabfaeec14694afbadb55
00014224646790ISENTO        CONSUMIDOR                         RJ3100NG0261484262201601312211 0000002741A2D9FC74D487276D8951A3A57FEAC0E000000001000000000001000000000000290000000000000000000000000N16010000002741135497777       988413ebf194b09db4d26f56ea0bec91
00009319949778ISENTO        CONSUMIDOR                         RJ3100NG0361250804201601312211 000000275CEE89D34998C619B2AC79FC2A005FB1E000000001000000000000203000000000059000000000797000000000000N160100000027522997777677      7f1994725a5d05f084b8b5822d1008a8
00015110013721ISENTO        CONSUMIDOR                         RJ3100NG0299656965201601312211 000000276160BBDD8B4A0DE452013276FB5AD922B000000000299000000000299000000000087000000000000000000000000N160100000027621999292874      04c6aa034aeb1836942821c87f5ba605
00018649845703ISENTO        CONSUMIDOR                         RJ3100NG0439039535201601312211 000000277CEBFC8602DC9EB74CFF47397B7EE14ED000000000599000000000599000000000174000000000000000000000000N16010000002771135497777       4ea9e4113fe7691b9733c08fc747c7c1
00083406522734ISENTO        CONSUMIDOR                         RJ3100NG0448520757201601312211 00000027884D976E54DA33C1B2AD27FAA18CC7E89000000000299000000000299000000000087000000000000000000000000N160100000027821997135319      87f29de6c6c0ee04c924ca5c036b0823
00002035025745ISENTO        ADRIANA DA COSTA WERLING           RJ3100NG0298096561201601312211 000000279DE8DD4496DBB49FF4BE3CECF354370EE000000001000000000001000000000000290000000000000000000000000N160100000027921998968661      74fae33d6b2d4064b6c84b6cfd61b6cf
00000614095883ISENTO        CONSUMIDOR                         RJ3100NG0357574111201601312211 000000280556FAE5C8694705332D8DF71B8B6B9B7000000001000000000001000000000000290000000000000000000000000N16010000002801135497777       8213a38bb4a778cfaa33df37aaaa3e30
00089461614772ISENTO        CONSUMIDOR                         RJ3100NG0101590248201601312211 000000281ED1C18E645C030387C3A69E39E17AC8E000000000299000000000299000000000087000000000000000000000000N16010000002811135497777       1e390895853a44847b5852c1a24f37a1
00063293463720ISENTO        CONSUMIDOR                         RJ3100NG0160666825201601312211 0000002821FDAD0323603769F6028C9CE8287CA1D000000001000000000001000000000000290000000000000000000000000N160100000028221972231922      68a9f0f32b863c70019b30507b8b03e9
00011618048708ISENTO        CONSUMIDOR                         RJ3100NG0084673171201601312211 000000283A19D3BE555C1C11248E04C33F5FA591A000000001000000000001000000000000290000000000000000000000000N16010000002831135497777       8c0ca80ac598e5fe7f50aec34ed63a1a
00009293951746ISENTO        CONSUMIDOR                         RJ3100NG0400621414201601312211 000000284B20C325504926CFA562DC2579F8C3FF2000000001000000000000015000000000004000000000985000000000000N16010000002841135497777       b9b7a9889ded455db572200130111334
00008143888762ISENTO        CONSUMIDOR                         RJ3100NG0420078068201601312211 0000002850A94F4B5D8BDE2244FAB23CEE282393D000000001000000000000103000000000030000000000897000000000000N16010000002851135497777       e87cbbfa9dca2060880361aba6d064e4
00078391059715ISENTO        ANTONIO CARLOS PEREIRA REID        RJ3100NG0286340718201601312211 0000002862CEE025364A2ADA09EACD1A4AA482203000000001000000000001000000000000290000000000000000000000000N160100000028622997745867      d90734dc64160c30c33a7c93199b2c4a
00008719968710ISENTO        CONSUMIDOR                         RJ3100NG0403768756201601312211 000000287E88951FFB10AB50A4E8E0BA33F027390000000001000000000001000000000000290000000000000000000000000N16010000002871135497777       e5e453a185cc2709eeb2b348f97820ff
00097084336753ISENTO        CONSUMIDOR                         RJ3100NG0440029397201601312211 000000288ABB3B5D358CE8C165F0BA51046FC2A78000000000299000000000299000000000087000000000000000000000000N16010000002881135497777       49fd52cf1750d05d82b130c57f6c3a52
00011000806782ISENTO        GEORGE ALEXANDRE ROCHA DA SILVA    RJ3100NG0360897060201601312211 00000028992D739420B6F016A787C6B3E7F340B0F000000001000000000001000000000000290000000000000000000000000N160100000028921971584804      6e35c0ba7ad86ef0b0a80ec082c5928c
00018722867805ISENTO        PATRICIA RODRIGUES                 RJ3100NG0404504076201601312211 00000029006836EEEC49DB7ACD032FB7B789FB3F4000000000299000000000299000000000087000000000000000000000000N160100000029021996992446      5c2a58eb7cd138f72939cce0cebf63e3
00002621670776ISENTO        CONSUMIDOR                         RJ3100NG0331095023201601312211 0000002914C5BD5F0F13E5BE44D48E45A3CCE8101000000001000000000000900000000000261000000000100000000000000N160100000029121997196127      31ae33e46bbff66e3ddded04943258ad
00010601328779ISENTO        CONSUMIDOR                         RJ3100NG0381006036201601312211 000000292D3B4156BF6302BA66F34D6FC9D008EB0000000000599000000000599000000000174000000000000000000000000N16010000002921135497777       decb1de005b84d5a66a7a0fea4756c57
00003939251704ISENTO        CONSUMIDOR                         RJ3100NG0398015469201601312211 0000002934452F231E73DAB731BFF1BAE5FBC2DBC000000001000000000001000000000000290000000000000000000000000N160100000029321996747891      5a284af0d3bbe6a96d720338658e1781
00082940126704ISENTO        CONSUMIDOR                         RJ3100NG0308285593201601312211 00000029449820631D142C87CCD7316E54C4B4DA4000000001000000000000000000000000000000000001000000000000000N160100000029421971899618      3182d95d0e03729c30a8961e8a29c93b
00054673879520ISENTO        CONSUMIDOR                         RJ3100NG0439561334201601312211 0000002959EF7F566DAFEE56D427D371906FD0FDF000000000299000000000000000000000000000000000299000000000000N160100000029521996191020      fe165e74b6c9b86940fa093f27c9687c
00015357735700ISENTO        CONSUMIDOR                         RJ3100NG0285058279201601312211 000000296E591329B7526A111916016C46E63FB61000000001000000000000303000000000088000000000697000000000000N16010000002961135497777       f6ec0100d2eb4bdad97884c95601cd53
00033752788704ISENTO        CONSUMIDOR                         RJ3100NG0151089791201601312211 000000297AFFB65F3278C92B792985EF0C1B5A573000000001000000000001000000000000290000000000000000000000000N160100000029721992972160      38ba4fd4da0eb5c7a57ca733b30319bb
00026537818753ISENTO        VERA LUCIA FRACAROLI NEVES         RJ3100NG0363936464201601312211 000000298B6C7218F3A7FE6057E783382613621D9000000000599000000000599000000000174000000000000000000000000N160100000029821967164390      28e8588effdf6ce2bccca05ba8b49275
00014830665769ISENTO        CONSUMIDOR                         RJ3100NG0439264999201601312211 000000299E5C366E76DB13B1BC23908893A643D99000000000299000000000299000000000087000000000000000000000000N160100000029921971926800      34fdf4d72a1f6832399b419dc7e2ad0a
00001514360705ISENTO        CELIA ASSIS NUNES                  RJ3100NG0388378170201601312211 0000003003B86165EA51B1F1E993C2B4C2C1F94C2000000000299000000000001000000000000000000000298000000000000N160100000030022997798499      1af6fb6a6447f5eb2e50badde2482ec7
00054673879520ISENTO        CONSUMIDOR                         RJ3100NG0439561334201601312211 000000301832D99279EEAB898B2EA14DB0A122709000000000299000000000299000000000087000000000000000000000000N160100000030121996191020      c295c90d57b4d70510ce7ca1fe396419
00024331015734ISENTO        CONSUMIDOR                         RJ3100NG0427893383201601312211 000000302155A4F8889A71C1763CF1941B5474DCA000000000299000000000209000000000061000000000090000000000000N160100000030221967739731      f6103c6f65682a4226f7a89efbb4dc41
00007331462792ISENTO        CONSUMIDOR                         RJ3100NG0178435957201601312211 0000003038BD57C61CADE4E9A3409EF5F473E77C1000000001000000000001000000000000290000000000000000000000000N16010000003031135497777       7344b0b05d07cc029689f7e93f97bd21
00009498082707ISENTO        CONSUMIDOR                         RJ3100NG0034361868201601312211 00000030497BBE816C862E9632C93C72A3FBA851B000000001000000000000000000000000000000000001000000000000000N16010000003041135497777       927dc9e6c3edf8912a120c4affbf84db
00009164292703ISENTO        CONSUMIDOR                         RJ3100NG0381276560201601312211 000000305782EBE59438E8DD58BFE24C4A8AB3AD8000000001000000000000943000000000273000000000057000000000000N16010000003051135497777       0da6322e0082c72152f9727bc48c88d6
00050451260759ISENTO        CONSUMIDOR                         RJ3100NG0380579196201601312211 000000306A643964A330AD774F07038C5F10A96B4000000001000000000000088000000000026000000000912000000000000N160100000030621997936375      7d14065c88e1ef3b32e538373f9059c9
00016296326785ISENTO        CONSUMIDOR                         RJ3100NG0353181429201601312211 000000307D82033585B0B96B1470C5A13F23C91BB000000000599000000000001000000000000000000000598000000000000N160100000030721967371413      b7687ca7e5a6b74acb4c71085b6a5f19
00008922282703ISENTO        CONSUMIDOR                         RJ3100NG0419644652201601312211 000000308EE71D00E44DD9C316B31CAA029CEBF6D000000001000000000001000000000000290000000000000000000000000N160100000030822999787556      cba156d2becc4aa8075b0629ca4e2e71
00007263663740ISENTO        CONSUMIDOR                         RJ3100NG0294676068201601312211 000000309A63231A71013E333A3B55CFA79A6B5CD000000001000000000001000000000000290000000000000000000000000N160100000030922998138163      2217de16ffecd7dac5fcac11f24ea07d
00012515178707ISENTO        CONSUMIDOR                         RJ3100NG0413948190201601312211 0000003100E63F10FCA2A713D277917BB6F7A2322000000000599000000000599000000000174000000000000000000000000N160100000031021971920252      ace6c612bb6e8fb0729fab65292be592
00009359384780ISENTO        CONSUMIDOR                         RJ3100NG0226503407201601312211 0000003118B75DF756774AE1C427CA41AB9399F81000000000299000000000299000000000087000000000000000000000000N160100000031122998275693      756c4d6d13e4f55a7715a65d9f90e377
00015110013721ISENTO        CONSUMIDOR                         RJ3100NG0299656965201601312211 00000031240E956ADAE93143751CE0E83C0028777000000000299000000000299000000000087000000000000000000000000N160100000031221999292874      28006efba3831d870ceb4e59ce75f545
00009907961752ISENTO        CONSUMIDOR                         RJ3100NG0180359210201601312211 000000313104FC857C21A9678972643B73EB0636A000000001000000000000701000000000203000000000299000000000000N16010000003131135497777       85466d9af43f1f967d366a0df3748f38
00000000000000ISENTO        CONSUMIDOR                         RJ3100NG0439221698201601312211 0000003140B6A07821093945748B327A222E757C0000000000599000000000599000000000174000000000000000000000000N160100000031421993368111      4125c6f6df3f95301017de5e533f851f
00015623775748ISENTO        CONSUMIDOR                         RJ3100NG0346992115201601312211 0000003153D9E00A5FC804A7CC598C18049A55A97000000000299000000000299000000000087000000000000000000000000N16010000003151135497777       be9c4b90a5902ba2477952cc8d496630
00003210489700ISENTO        CONSUMIDOR                         RJ3100NG0375064719201601312211 000000316F7C75B16CE621B7E749E7AD5BCB512FE000000001000000000001000000000000290000000000000000000000000N16010000003161135497777       fb43c9f9f4bd63084daa083b0cd6f20c
00011114686727ISENTO        CRISTIANE LOPES SANT ANNA          RJ3100NG0446054485201601312211 000000317A17B10D4F57D0BEA45D84BBFBD7C946C000000000599000000000599000000000174000000000000000000000000N160100000031721967863503      f4636fd620b867341cdf1caa31db90c8
